{
  "_format": "hh-sol-artifact-1",
  "contractName": "CatastropheBond",
  "sourceName": "contracts/CatastropheBond.sol",
  "abi": [
    {
      "inputs": [
        {
          "internalType": "address",
          "name": "_sponsor",
          "type": "address"
        },
        {
          "internalType": "address",
          "name": "_oracle",
          "type": "address"
        },
        {
          "internalType": "uint64[]",
          "name": "_tiles",
          "type": "uint64[]"
        },
        {
          "internalType": "uint256",
          "name": "_insuredSum",
          "type": "uint256"
        },
        {
          "internalType": "uint256",
          "name": "_premium",
          "type": "uint256"
        },
        {
          "internalType": "uint256",
          "name": "_expiryDate",
          "type": "uint256"
        },
        {
          "internalType": "uint8",
          "name": "_threshold",
          "type": "uint8"
        }
      ],
      "stateMutability": "payable",
      "type": "constructor"
    },
    {
      "inputs": [
        {
          "internalType": "uint8",
          "name": "_indexValue",
          "type": "uint8"
        }
      ],
      "name": "checkOutcome",
      "outputs": [],
      "stateMutability": "nonpayable",
      "type": "function"
    },
    {
      "inputs": [],
      "name": "decideOutcome",
      "outputs": [],
      "stateMutability": "nonpayable",
      "type": "function"
    },
    {
      "inputs": [],
      "name": "deployDate",
      "outputs": [
        {
          "internalType": "uint256",
          "name": "",
          "type": "uint256"
        }
      ],
      "stateMutability": "view",
      "type": "function"
    },
    {
      "inputs": [],
      "name": "dissolve",
      "outputs": [],
      "stateMutability": "nonpayable",
      "type": "function"
    },
    {
      "inputs": [],
      "name": "expiryDate",
      "outputs": [
        {
          "internalType": "uint256",
          "name": "",
          "type": "uint256"
        }
      ],
      "stateMutability": "view",
      "type": "function"
    },
    {
      "inputs": [],
      "name": "index",
      "outputs": [
        {
          "internalType": "uint8",
          "name": "",
          "type": "uint8"
        }
      ],
      "stateMutability": "view",
      "type": "function"
    },
    {
      "inputs": [],
      "name": "insuredSum",
      "outputs": [
        {
          "internalType": "uint256",
          "name": "",
          "type": "uint256"
        }
      ],
      "stateMutability": "view",
      "type": "function"
    },
    {
      "inputs": [],
      "name": "invest",
      "outputs": [],
      "stateMutability": "payable",
      "type": "function"
    },
    {
      "inputs": [],
      "name": "investor",
      "outputs": [
        {
          "internalType": "address payable",
          "name": "",
          "type": "address"
        }
      ],
      "stateMutability": "view",
      "type": "function"
    },
    {
      "inputs": [],
      "name": "oracle",
      "outputs": [
        {
          "internalType": "address",
          "name": "",
          "type": "address"
        }
      ],
      "stateMutability": "view",
      "type": "function"
    },
    {
      "inputs": [],
      "name": "premium",
      "outputs": [
        {
          "internalType": "uint256",
          "name": "",
          "type": "uint256"
        }
      ],
      "stateMutability": "view",
      "type": "function"
    },
    {
      "inputs": [
        {
          "internalType": "address",
          "name": "with",
          "type": "address"
        }
      ],
      "name": "replaceInvestor",
      "outputs": [],
      "stateMutability": "nonpayable",
      "type": "function"
    },
    {
      "inputs": [
        {
          "internalType": "address",
          "name": "with",
          "type": "address"
        }
      ],
      "name": "replaceSponsor",
      "outputs": [],
      "stateMutability": "nonpayable",
      "type": "function"
    },
    {
      "inputs": [],
      "name": "sponsor",
      "outputs": [
        {
          "internalType": "address payable",
          "name": "",
          "type": "address"
        }
      ],
      "stateMutability": "view",
      "type": "function"
    },
    {
      "inputs": [],
      "name": "status",
      "outputs": [
        {
          "internalType": "enum CatastropheBond.Status",
          "name": "",
          "type": "uint8"
        }
      ],
      "stateMutability": "view",
      "type": "function"
    },
    {
      "inputs": [],
      "name": "threshold",
      "outputs": [
        {
          "internalType": "uint8",
          "name": "",
          "type": "uint8"
        }
      ],
      "stateMutability": "view",
      "type": "function"
    },
    {
      "inputs": [
        {
          "internalType": "uint256",
          "name": "",
          "type": "uint256"
        }
      ],
      "name": "tiles",
      "outputs": [
        {
          "internalType": "uint64",
          "name": "",
          "type": "uint64"
        }
      ],
      "stateMutability": "view",
      "type": "function"
    },
    {
      "inputs": [],
      "name": "waitTime",
      "outputs": [
        {
          "internalType": "uint256",
          "name": "",
          "type": "uint256"
        }
      ],
      "stateMutability": "view",
      "type": "function"
    }
  ],
  "bytecode": "0x608060405262093a80600855604051620013aa380380620013aa833981810160405260e08110156200003057600080fd5b810190808051906020019092919080519060200190929190805160405193929190846401000000008211156200006557600080fd5b838201915060208201858111156200007c57600080fd5b82518660208202830111640100000000821117156200009a57600080fd5b8083526020830192505050908051906020019060200280838360005b83811015620000d3578082015181840152602081019050620000b6565b505050509050016040526020018051906020019092919080519060200190929190805190602001909291908051906020019092919050505082341462000165576040517f08c379a0000000000000000000000000000000000000000000000000000000008152600401808060200182810382526028815260200180620013826028913960400191505060405180910390fd5b866000806101000a81548173ffffffffffffffffffffffffffffffffffffffff021916908373ffffffffffffffffffffffffffffffffffffffff1602179055508460029080519060200190620001bd92919062000268565b508360048190555082600581905550426006819055508160078190555080600360146101000a81548160ff021916908360ff16021790555085600360006101000a81548173ffffffffffffffffffffffffffffffffffffffff021916908373ffffffffffffffffffffffffffffffffffffffff1602179055506000600a60006101000a81548160ff021916908360038111156200025657fe5b0217905550505050505050506200034a565b82805482825590600052602060002090600301600490048101928215620003185791602002820160005b83821115620002e057835183826101000a81548167ffffffffffffffff021916908367ffffffffffffffff160217905550926020019260080160208160070104928301926001030262000292565b8015620003165782816101000a81549067ffffffffffffffff0219169055600801602081600701049283019260010302620002e0565b505b5090506200032791906200032b565b5090565b5b80821115620003465760008160009055506001016200032c565b5090565b611028806200035a6000396000f3fe6080604052600436106101095760003560e01c806342cde4e8116100955780637dc0d1d0116100645780637dc0d1d0146103b9578063c4bb8344146103fa578063ccca123b1461044b578063e0a73a9314610476578063e8b5e51f146104a157610109565b806342cde4e8146102f4578063516dde431461032257806369668fe91461034d57806377c936621461037857610109565b806323ecea1f116100dc57806323ecea1f146101ee5780632986c0e5146102055780632fd2e7421461023357806333ef87421461028c5780633bef8a3a146102dd57610109565b806311f77c901461010e5780631c00313c146101395780631e0018d614610177578063200d2ed2146101b8575b600080fd5b34801561011a57600080fd5b506101236104ab565b6040518082815260200191505060405180910390f35b34801561014557600080fd5b506101756004803603602081101561015c57600080fd5b81019080803560ff1690602001909291905050506104b1565b005b34801561018357600080fd5b5061018c6106ac565b604051808273ffffffffffffffffffffffffffffffffffffffff16815260200191505060405180910390f35b3480156101c457600080fd5b506101cd6106d2565b604051808260038111156101dd57fe5b815260200191505060405180910390f35b3480156101fa57600080fd5b506102036106e5565b005b34801561021157600080fd5b5061021a610853565b604051808260ff16815260200191505060405180910390f35b34801561023f57600080fd5b5061026c6004803603602081101561025657600080fd5b8101908080359060200190929190505050610866565b604051808267ffffffffffffffff16815260200191505060405180910390f35b34801561029857600080fd5b506102db600480360360208110156102af57600080fd5b81019080803573ffffffffffffffffffffffffffffffffffffffff1690602001909291905050506108a1565b005b3480156102e957600080fd5b506102f261098b565b005b34801561030057600080fd5b50610309610ae6565b604051808260ff16815260200191505060405180910390f35b34801561032e57600080fd5b50610337610af9565b6040518082815260200191505060405180910390f35b34801561035957600080fd5b50610362610aff565b6040518082815260200191505060405180910390f35b34801561038457600080fd5b5061038d610b05565b604051808273ffffffffffffffffffffffffffffffffffffffff16815260200191505060405180910390f35b3480156103c557600080fd5b506103ce610b29565b604051808273ffffffffffffffffffffffffffffffffffffffff16815260200191505060405180910390f35b34801561040657600080fd5b506104496004803603602081101561041d57600080fd5b81019080803573ffffffffffffffffffffffffffffffffffffffff169060200190929190505050610b4f565b005b34801561045757600080fd5b50610460610c36565b6040518082815260200191505060405180910390f35b34801561048257600080fd5b5061048b610c3c565b6040518082815260200191505060405180910390f35b6104a9610c42565b005b60045481565b600360009054906101000a900473ffffffffffffffffffffffffffffffffffffffff1673ffffffffffffffffffffffffffffffffffffffff163373ffffffffffffffffffffffffffffffffffffffff1614610557576040517f08c379a0000000000000000000000000000000000000000000000000000000008152600401808060200182810382526022815260200180610ec96022913960400191505060405180910390fd5b6001600381111561056457fe5b600a60009054906101000a900460ff16600381111561057f57fe5b146105f2576040517f08c379a00000000000000000000000000000000000000000000000000000000081526004018080602001828103825260208152602001807f54686520636174617374726f70686520626f6e64206973206e6f74206c69766581525060200191505060405180910390fd5b60075442111561064d576040517f08c379a000000000000000000000000000000000000000000000000000000000815260040180806020018281038252604a815260200180610f16604a913960600191505060405180910390fd5b80600360156101000a81548160ff021916908360ff160217905550600360149054906101000a900460ff1660ff168160ff16106106a9576002600a60006101000a81548160ff021916908360038111156106a357fe5b02179055505b50565b600160009054906101000a900473ffffffffffffffffffffffffffffffffffffffff1681565b600a60009054906101000a900460ff1681565b600160038111156106f257fe5b600a60009054906101000a900460ff16600381111561070d57fe5b14801561071c57506007544210155b156107b857600160009054906101000a900473ffffffffffffffffffffffffffffffffffffffff1673ffffffffffffffffffffffffffffffffffffffff166108fc479081150290604051600060405180830381858888f19350505050158015610789573d6000803e3d6000fd5b5060038081111561079657fe5b600a60009054906101000a900460ff1660038111156107b157fe5b5050610851565b600260038111156107c557fe5b600a60009054906101000a900460ff1660038111156107e057fe5b14156108505760008054906101000a900473ffffffffffffffffffffffffffffffffffffffff1673ffffffffffffffffffffffffffffffffffffffff166108fc6004549081150290604051600060405180830381858888f1935050505015801561084e573d6000803e3d6000fd5b505b5b565b600360159054906101000a900460ff1681565b6002818154811061087357fe5b9060005260206000209060049182820401919006600802915054906101000a900467ffffffffffffffff1681565b600160009054906101000a900473ffffffffffffffffffffffffffffffffffffffff1673ffffffffffffffffffffffffffffffffffffffff163373ffffffffffffffffffffffffffffffffffffffff1614610947576040517f08c379a0000000000000000000000000000000000000000000000000000000008152600401808060200182810382526030815260200180610fc36030913960400191505060405180910390fd5b80600160006101000a81548173ffffffffffffffffffffffffffffffffffffffff021916908373ffffffffffffffffffffffffffffffffffffffff16021790555050565b60008054906101000a900473ffffffffffffffffffffffffffffffffffffffff1673ffffffffffffffffffffffffffffffffffffffff163373ffffffffffffffffffffffffffffffffffffffff1614610a2f576040517f08c379a000000000000000000000000000000000000000000000000000000000815260040180806020018281038252602b815260200180610e75602b913960400191505060405180910390fd5b60006003811115610a3c57fe5b600a60009054906101000a900460ff166003811115610a5757fe5b14610aad576040517f08c379a000000000000000000000000000000000000000000000000000000000815260040180806020018281038252602b815260200180610f98602b913960400191505060405180910390fd5b60008054906101000a900473ffffffffffffffffffffffffffffffffffffffff1673ffffffffffffffffffffffffffffffffffffffff16ff5b600360149054906101000a900460ff1681565b60075481565b60065481565b60008054906101000a900473ffffffffffffffffffffffffffffffffffffffff1681565b600360009054906101000a900473ffffffffffffffffffffffffffffffffffffffff1681565b60008054906101000a900473ffffffffffffffffffffffffffffffffffffffff1673ffffffffffffffffffffffffffffffffffffffff163373ffffffffffffffffffffffffffffffffffffffff1614610bf3576040517f08c379a0000000000000000000000000000000000000000000000000000000008152600401808060200182810382526030815260200180610fc36030913960400191505060405180910390fd5b806000806101000a81548173ffffffffffffffffffffffffffffffffffffffff021916908373ffffffffffffffffffffffffffffffffffffffff16021790555050565b60085481565b60055481565b60085460065401421115610ca1576040517f08c379a0000000000000000000000000000000000000000000000000000000008152600401808060200182810382526038815260200180610f606038913960400191505060405180910390fd5b600073ffffffffffffffffffffffffffffffffffffffff16600160009054906101000a900473ffffffffffffffffffffffffffffffffffffffff1673ffffffffffffffffffffffffffffffffffffffff1614610d48576040517f08c379a0000000000000000000000000000000000000000000000000000000008152600401808060200182810382526029815260200180610ea06029913960400191505060405180910390fd5b6004543414610da2576040517f08c379a000000000000000000000000000000000000000000000000000000000815260040180806020018281038252602b815260200180610eeb602b913960400191505060405180910390fd5b33600160006101000a81548173ffffffffffffffffffffffffffffffffffffffff021916908373ffffffffffffffffffffffffffffffffffffffff160217905550600160009054906101000a900473ffffffffffffffffffffffffffffffffffffffff1673ffffffffffffffffffffffffffffffffffffffff166108fc6005549081150290604051600060405180830381858888f19350505050158015610e4d573d6000803e3d6000fd5b506001600a60006101000a81548160ff02191690836003811115610e6d57fe5b021790555056fe4f6e6c79207468652073706f6e736f72206d617920646973736f6c76652074686520636f6e747261637421416e20696e766573746f722068617320616c72656164792066756e646564207468697320626f6e642e4f6e6c7920746865206f7261636c65206d61792061646420616e206f7574636f6d655061792074686520696e73757265642073756d20746f20696e7665737420696e207468697320626f6e642e54686520636174617374726f70686520626f6e642074696d6520686173206578706972652063616c6c206465636964654f7574636f6d6520746f20776974686472617720636f75706f6e5468697320626f6e64206f6666657220686173206578706972656420776974686f75742066696e64696e6720616e20696e766573746f722e416e20696e766573746f722068617320616c7265616479207061696420746865207072696e636970616c214f6e6c79206120706172747920746f2074686520626f6e64206d617920696e6974696174652061207472616e73666572a2646970667358221220f1957ca2666f541198a8f7bf46648dcb21e0c3baebc07c14d80cb0900dfcf29764736f6c6343000703003350617920746865207072656d69756d20746f20696e7374616e74696174652074686520626f6e642e",
  "linkReferences": {},
  "deployedLinkReferences": {}
}